:100000008BC00000A4C00000A2C00000A0C000007F
:100010009EC000009CC000009AC0000098C0000074
:1000200096C0000094C0000092C00000B0C3000061
:100030008EC000008CC000008AC0000088C0000094
:1000400086C0000084C0000082C0000080C00000A4
:100050007EC000007CC000007AC000002FC10000FC
:1000600076C0000074C0000072C0000070C00000C4
:100070006EC000008604A4044D05A4044D05D904F7
:10008000F6044D05150527052203410072006400A2
:10009000750069006E006F0020004A006F00790053
:1000A00073007400690063006B00000010034100DE
:1000B00072006400750069006E006F0000000403A8
:1000C000090409022200010100C0320904000001F4
:1000D000030000000921110100012222000705810F
:1000E0000308000A1201100100000008EB0343207E
:1000F00000000102000105010904A1010901A1009C
:100100000501093009310932093316008026FF7FC5
:10011000751095048182C0C011241FBECFEFD2E0BC
:10012000DEBFCDBF11E0A0E0B1E0E4EEFEE002C032
:1001300005900D92AE30B107D9F721E0AEE0B1E005
:1001400001C01D92AE3AB207E1F72DD0C9C658CF13
:10015000CF93DF9384B7877F84BF88E10FB6F8948D
:1001600080936000109260000FBE80E190E0909359
:10017000CD008093CC0086E08093CA0082E080931B
:10018000C800C9ECD0E088E18883539A5A9A8AB1B2
:1001900080638AB98BB180638BB9EED288E988839A
:1001A000DF91CF910895D4DF2FB7F89480E291E0EA
:1001B00090939F0180939E019093A1018093A00151
:1001C0002FBF789480E091E0BFD570D480910E016C
:1001D00090910F01892BB1F380910E0190910F0145
:1001E000019790930F0180930E0180910E019091E1
:1001F0000F01892B39F75D9AE5CF0895089580E0C6
:1002000091E07FD5E2EEF0E0808184608083089504
:1002100080E091E05CC480910B0190910C0100970B
:1002200029F0019790930C0180930B0108950F938F
:100230001F93CF93DF939FB7F8948091A2019FBF44
:10024000883040F1C0E1D1E080E291E0E091A0018E
:10025000F091A1015191F093A101E093A001EE5919
:10026000F14021F49093A1018093A0016FB7F8941D
:100270004091A20141504093A2016FBF5993E1E028
:10028000C831DE0719F75D9880ED97E090930F0174
:1002900080930E0188E0E0E1F1E0D90101900D9238
:1002A0008A95E1F788E090E0F8019183808380E00F
:1002B000DF91CF911F910F91089508951F920F9292
:1002C0000FB60F9211242F938F939F93EF93FF9369
:1002D0008091CE009EB3943029F52FB7F894909179
:1002E000A2012FBF9E37F1F0E0919E01F0919F0196
:1002F0008083E0919E01F0919F01CF010196909340
:100300009F0180939E018E59914021F480E291E0FB
:10031000928381839FB7F8948091A2018F5F80932D
:10032000A2019FBFFF91EF919F918F912F910F900D
:100330000FBE0F901F901895292F332723303105BA
:10034000B9F05CF42130310569F12230310579F5DD
:1003500082E290E022EC30E02EC021323105E9F05B
:100360002232310521F582E290E026EF30E023C011
:1003700099278130910541F08230910541F0892B18
:10038000B1F4EEEBF0E005C0ECEAF0E002C0E8E822
:10039000F0E0849190E09F010EC089E090E024EDB0
:1003A00030E009C082E190E024EE30E004C080E05B
:1003B00090E020E030E0FA0131832083089528E0C6
:1003C00030E040E02817390720F44F5F220F331F39
:1003D000F9CF842F8295807F08958093E900EBEE1A
:1003E000F0E0808181608083EDEEF0E01082609328
:1003F000EC0040838091EE00881F8827881F0895B5
:100400001092F40080E08093E9001092F0001092C6
:10041000E8001092ED009091EB009E7F9093EB002E
:100420008F5F853081F708958091A60187FD05C013
:100430008091E80080FF0DC010C08091E80082FD2F
:1004400004C08EB38111F9CF08958091E8008B77B5
:1004500007C08EB38111ECCF08958091E8008E77AC
:100460008093E800089585E69091EC0090FF05C028
:100470009091E80090FF05C01BC09091E80092FDAC
:1004800017C09EB39923B1F09EB39530A9F0909117
:10049000EB0095FD13C09091E10092FFE5CF9091A4
:1004A000E1009B7F9093E1008150F1F684E0089594
:1004B00080E0089582E0089583E0089581E0089542
:1004C000EF92FF920F931F93CF93DF93EC018B0179
:1004D0007A01C9DF81111DC001151105C9F0809194
:1004E000E80085FD0EC08091E8008E778093E800DB
:1004F000E114F10471F3F7010995813051F785E0BA
:1005000008C088818093F100015011092196E4CF41
:1005100080E0DF91CF911F910F91FF90EF900895B0
:100520002091AC013091AD012617370748F06115D5
:10053000710539F42091E8002E772093E80001C07E
:10054000B90130E06115710591F12091E80023FDBA
:1005500038C02091E80022FF06C08091E80082FFA9
:1005600029C080E008952EB3222369F12EB32530EF
:1005700061F12091E80020FFE5CF2091F200FC011D
:10058000CF016115710549F0283038F481918093CD
:10059000F100615071092F5FF3CF31E0283009F08D
:1005A00030E02091E8002E772093E800CBCF311186
:1005B000CCCFD3CF8EB3882331F08EB3853069F69C
:1005C00004C081E0089582E0089583E008952091B9
:1005D000AC013091AD012617370748F06115710560
:1005E00039F42091E8002E772093E80001C0B9018A
:1005F00030E06115710599F12091E80023FD39C0C3
:100600002091E80022FF06C08091E80082FF2AC006
:1006100080E008952EB3222371F12EB3253069F1C5
:100620002091E80020FFE5CF2091F200FC01CF01EE
:100630006115710551F0283040F484918093F100E8
:10064000615071092F5F3196F2CF31E0283009F007
:1006500030E02091E8002E772093E800CACF3111D6
:10066000CBCFD2CF8EB3882331F08EB3853061F6F5
:1006700004C081E0089582E0089583E00895611543
:10068000710529F42091E8002B772093E80061158B
:10069000710549F12091E80023FD2AC02EB32223E1
:1006A00059F12EB3253051F12091E80022FFF2CF0D
:1006B000FC018091F200882371F09F012F5F3F4F72
:1006C000C9014091F10040836150710961157105C4
:1006D000C9F2F901EECFCF01D5CF8EB3882361F0F7
:1006E0008EB3853059F08091E80080FFF6CF02C0CC
:1006F00081E0089580E0089582E0089583E0089500
:1007000040D042D01EBA1092A4011092A30184E0FE
:1007100089BD89B5826089BD09B400FEFDCF809195
:10072000D800982F9F779093D80080688093D80046
:10073000809163008E7F809363008091D8008F7DCD
:100740008093D8008091E0008E7F8093E0008091BC
:10075000E1008E7F8093E1008091E20081608093D0
:10076000E2008091E100877F8093E1008091E200C8
:1007700088608093E2000895C3DF81E08093A50143
:1007800008951092E20008951092E10008951F92DA
:100790000F920FB60F9211242F933F934F935F93B5
:1007A0006F937F938F939F93AF93BF93EF93FF9339
:1007B0008091E10080FF1BC08091E20080FF17C0A4
:1007C0008091E1008E7F8093E1008091E2008E7F36
:1007D0008093E2008091E20080618093E20080914A
:1007E000D80080628093D80019BC1EBA07DD8091C2
:1007F000E10084FF29C08091E20084FF25C084E0ED
:1008000089BD89B5826089BD09B400FEFDCF8091A4
:10081000D8008F7D8093D8008091E1008F7E8093F7
:10082000E1008091E2008F7E8093E2008091E200FF
:1008300081608093E2008091A401882311F084E01C
:1008400001C081E08EBBD9DC8091E10083FF22C032
:100850008091E20083FF1EC08091E100877F80933A
:10086000E10082E08EBB1092A4018091E1008E7FB6
:100870008093E1008091E2008E7F8093E20080917E
:10088000E20080618093E200BBDD42E060E080E056
:10089000A4DD0BD18091E10082FF0AC08091E200CB
:1008A00082FF06C08091E1008B7F8093E100B3DC82
:1008B000FF91EF91BF91AF919F918F917F916F9138
:1008C0005F914F913F912F910F900FBE0F901F900E
:1008D00018951F93CF93DF9300D0CDB7DEB7E6EA2C
:1008E000F1E08091F100819381E0EE3AF807C9F7D9
:1008F0002091A6013091A701832F90E08A309105C5
:1009000008F0CBC0FC01E65CFF4FC7C2203881F085
:10091000223809F0C2C08091AA0187708093E90053
:100920009091EB0095FB992790F91092E90002C095
:100930009091A3018091E800877F8093E8009093D5
:10094000F1001092F1007CC0822F8D7F09F0A5C0CC
:10095000223009F093C08091A801811124C0209118
:10096000AA01277009F48AC02093E9008091EB0066
:1009700080FF84C08091EB00333011F4806211C09D
:1009800080618093EB0081E090E0022E01C0880F2F
:100990000A94EAF78093EA001092EA008091EB0053
:1009A00088608093EB001092E9008091E800877FD7
:1009B0004AC0211172C01091A8018091E800877F80
:1009C0008093E80031DD8091E80080FD04C08EB3A3
:1009D0008111F9CF53C0812F8F7711F093E001C0BF
:1009E00092E09EBB80688093E30048C0205822308C
:1009F00008F053C0AE014F5F5F4F6091AA01809134
:100A0000A8019091A90198DC0097C1F12091E8001C
:100A1000277F2093E800BC0189819A81D8DD8091ED
:100A2000E8008B778093E80029C02038B1F58091E9
:100A3000E800877F8093E8008091A4018093F10013
:100A40008091E8008E778093E800EEDC17C02111DA
:100A500024C09091A801923088F48091E800877FAB
:100A60008093E8009093A401DFDC8091A4018823A7
:100A700011F084E001C083E08EBBC1DB8091E8000F
:100A800083FF0DC08091EB0080628093EB0080912A
:100A9000E800877F8093E80002C0BADBEFCF0F90B9
:100AA0000F90DF91CF911F9108950895CF938EB34A
:100AB000882359F0C091E900C7701092E900809135
:100AC000E80083FD06DFC093E900CF9108958F927F
:100AD0009F92AF92BF92CF92DF92EF92FF920F93CD
:100AE0001F93CF93DF9300D01F92CDB7DEB77C0169
:100AF000ADB6BEB68091E80083FFEEC0F7018081FD
:100B000090E02091AA013091AB012817390709F034
:100B1000E3C08091A701833009F490C030F48130A4
:100B200071F0823009F4C0C0D7C08A3009F4A5C082
:100B30008B3009F490C0893009F0CEC04CC0809150
:100B4000A601813A09F0C8C08DB69EB68091E80032
:100B5000877F8093E8001A8219828091A801109102
:100B6000A9018B83F701478150E08DB79EB7841BA5
:100B7000950B0FB6F8949EBF0FBE8DBFEDB7FEB7B5
:100B800031966F0160E070E0CF01A3D14FEF410FCC
:100B90008E010F5F1F4F9601BE016D5F7F4FC70132
:100BA00046DBF70185819681009721F0478150E06F
:100BB000B60186D11092E90069817A81C601B0DC64
:100BC0008091E8008B778093E8000FB6F8949EBE82
:100BD0000FBE8DBE81C08091A601813209F07CC01C
:100BE0008091E800877F8093E8000091AC0110912C
:100BF000AD019090A8018090A9018DB79EB7801B90
:100C0000910B0FB6F8949EBF0FBE8DBFEDB7FEB728
:100C100031966F01B801CF0132DD4FEF480D9601DB
:100C2000692DC7014ADB8091E8008E778093E80048
:100C30000FB6F894BEBE0FBEADBE4EC08091A601E9
:100C4000813A09F049C08091E800877F8093E800ED
:100C5000F701808539C08091A6018132E9F5809144
:100C6000E800877F8093E8009091A80181E09111CE
:100C700001C080E0F70180872EC08091A6018132FB
:100C800059F58091E800877F8093E8008091A80162
:100C90009091A901882736E0969587953A95E1F7D6
:100CA000F7019287818717C08091A601813AA1F44C
:100CB0008091E800877F8093E800F7018185928525
:100CC00096958795969587958093F1008091E80099
:100CD0008E778093E800A8DB0FB6F894BEBE0FBEF7
:100CE000ADBE0F900F900F90DF91CF911F910F919C
:100CF000FF90EF90DF90CF90BF90AF909F908F903C
:100D00000895CF93DF93FC01DC01189685E0ED0197
:100D100019928A95E9F781E0808784EF91E09287C4
:100D20008187228133818481882311F0C4E001C04E
:100D3000C0E0D181C90143DB4C2F482B426061ECFC
:100D40008D2FDF91CF9149CB5F926F927F928F92DF
:100D50009F92AF92BF92CF92DF92EF92FF920F934A
:100D60001F93CF93DF9300D01F92CDB7DEB77C01E6
:100D7000ADB6BEB68EB3843009F077C0F70181817D
:100D80008093E9008091E80085FF6FC08DB69EB624
:100D9000478150E08DB79EB7841B950B0FB6F89432
:100DA0009EBF0FBE8DBFEDB7FEB731966F011B82A0
:100DB0001A82198260E070E0CF018BD08E010F5F44
:100DC0001F4F960140E0BE016D5F7F4FC7012FDAD4
:100DD000682EF70181859285892B41F021E083857A
:100DE0009485892B09F020E0722E01C0712CF70147
:100DF000058116810115110589F049815A81B801D3
:100E0000C60151D055245394892B09F4512CF70174
:100E1000478150E0B601C80153D001C0512C29814F
:100E20003A81232BE9F0611004C0511002C070FE1A
:100E300017C0F7018185928594878387818180938C
:100E4000E9008B8181118093F10069817A8140E012
:100E500050E0C60135DB8091E8008E778093E80092
:100E60000FB6F8949EBE0FBE8DBE0FB6F894BEBEF0
:100E70000FBEADBE0F900F900F90DF91CF911F91DD
:100E80000F91FF90EF90DF90CF90BF90AF909F9029
:100E90008F907F906F905F900895EE0FFF1F0590E9
:100EA000F491E02D0994FB01DC0104C08D910190C7
:100EB000801921F441505040C8F7881B990B0895C0
:100EC000FB01DC0102C001900D9241505040D8F767
:100ED0000895DC0101C06D9341505040E0F7089542
:040EE000F894FFCFB4
:0E0EE4000001080000180108000000000000D6
:00000001FF
